201704050010020100000000000013439602                8000000000030545754734SECHEEP                       000000000669264000000000045557000000000000000000000000014393000000000000000000000000000000000000000000000000000000000000PES00010000001 00000000012953900000000000000000000000000                              000000000000000
201704010010001500000000000000113506                8000000000030699252456TRANSPORTE SN?IDER S.R.L.     000000000288965000000000000000000000000000000000000000000000000000000000000000000000000000000000000000000000000000000000PES00010000001 00000000005015100000000000000000000000000                              000000000000000
201704010010000300000000000000000655                8000000000030708829060OZICH VEGA & ASOCIADOS CONSULT000000000769501000000000000000000000000000000000000000000000000000000000000000000000000000000000000000000000000000000000PES00010000001 00000000013355000000000000000000000000000                              000000000000000
201704030010001500000000000000113764                8000000000030699252456TRANSPORTE SN?IDER S.R.L.     000000001057049000000000000000000000000000000000000000000000000000000000000000000000000000000000000000000000000000000000PES00010000001 00000000018345500000000000000000000000000                              000000000000000
201704030010001500000000000000113820                8000000000030699252456TRANSPORTE SN?IDER S.R.L.     000000000194659000000000000000000000000000000000000000000000000000000000000000000000000000000000000000000000000000000000PES00010000001 00000000003378400000000000000000000000000                              000000000000000
201704100010000100000000000003433238                8000000000030556366906SAMEEP                        000000000056709000000000000000000000000000000000000000000000000000000000000000000000000000000000000000000000000000000000PES00010000001 00000000001205600000000000000000000000000                              000000000000000
