201710310060000100000000000000000048000000000000000000488000000000030710871716ASOCIACION MUTUAL WALUNG      000000000423500000000000350000000000000000000000000000000000000000000000000000000000000000000000000000000000000000000000PES00010000001 00000000000000020171130
201710310010000100000000000000000197000000000000000001978000000000033714939969SEFINAR S.A.                  000000000121000000000000100000000000000000000000000000000000000000000000000000000000000000000000000000000000000000000000PES00010000001 00000000000000020171130
201710260010000100000000000000000196000000000000000001968000000000020228242382Tisman Diego Fernando         000000000000100000000000000083000000000000000000000000000000000000000000000000000000000000000000000000000000000000000000PES00010000001 00000000000000020171125
201710230010000100000000000000000195000000000000000001958000000000030709601101FOHMA SA                      000000032065000000000026500000000000000000000000000000000000000000000000000000000000000000000000000000000000000000000000PES00010000001 00000000000000020171122
201710230060000100000000000000000047000000000000000000478000000000030550857061COLEGIO DE FARMACEUTICOS DE LA000000000363000000000000300000000000000000000000000000000000000000000000000000000000000000000000000000000000000000000000PES00010000001 00000000000000020171122
201710210060000100000000000000000046000000000000000000468000000000030598665563AMEPORT-MUTUAL DEL PERSONAL DE000000002085000000000001770000000000000000000000000000000000000000000000000000000000000000000000000000000000000000000000PES00010000002 00000000000000020171120
201710200060000100000000000000000045000000000000000000458000000000000000000000CENTRO DE EST?CTICA GIULIANA  000000000060500000000000050000000000000000000000000000000000000000000000000000000000000000000000000000000000000000000000PES00010000001 00000000000000020171119
201710120060000100000000000000000044000000000000000000448000000000030710871716ASOCIACION MUTUAL WALUNG      000000000482500000000000430000000000000000000000000000000000000000000000000000000000000000000000000000000000000000000000PES00010000002 00000000000000020171111
201710120080000100000000000000000007000000000000000000078000000000030710871716ASOCIACION MUTUAL WALUNG      000000001210000000000001000000000000000000000000000000000000000000000000000000000000000000000000000000000000000000000000PES00010000001 00000000000000020171111
201710100010000100000000000000000194000000000000000001948000000000030516490140PARKER HANNIFIN ARGENTINA S.A.000000001210000000000001000000000000000000000000000000000000000000000000000000000000000000000000000000000000000000000000PES00010000001 00000000000000020171109
201710060010000100000000000000000193000000000000000001938000000000020083982099KLOSTER JOSE ARNOLDO          000000000875750000000000755000000000000000000000000000000000000000000000000000000000000000000000000000000000000000000000PES00010000002 00000000000000020171105
201710040010000100000000000000000192000000000000000001928000000000020332068726ARIEL CHOCRON                 000000001270000000000001049587000000000000000000000000000000000000000000000000000000000000000000000000000000000000000000PES00010000001 00000000000000020171103
201710030060000100000000000000000043000000000000000000438000000000030710871716ASOCIACION MUTUAL WALUNG      000000000450000000000000450000000000000000000000000000000000000000000000000000000000000000000000000000000000000000000000PES00010000001 00000000000000020171102
201710030010000100000000000000000191000000000000000001918000000000027200644110UGOLINI SANDRA NOEMI          000000000060500000000000050000000000000000000000000000000000000000000000000000000000000000000000000000000000000000000000PES00010000001 00000000000000020171102
201710020010000100000000000000000190000000000000000001908000000000027215659483GEREZ LILIANA CARMEN          000000000362500000000000299587000000000000000000000000000000000000000000000000000000000000000000000000000000000000000000PES00010000001 00000000000000020171101
201710020060000100000000000000000042000000000000000000428000000000030710871716ASOCIACION MUTUAL WALUNG      000000001210000000000001000000000000000000000000000000000000000000000000000000000000000000000000000000000000000000000000PES00010000001 00000000000000020171101
201710020060000100000000000000000041000000000000000000418000000000027123700029MARIA ROSA O'DONNELL          000000000230000000000000190083000000000000000000000000000000000000000000000000000000000000000000000000000000000000000000PES00010000001 00000000000000020171101
201710020010000100000000000000000189000000000000000001898000000000030715004492TEAM MALDONADO HNOS S.A.      000000000422000000000000380000000000000000000000000000000000000000000000000000000000000000000000000000000000000000000000PES00010000002 00000000000000020171101
201710020010000100000000000000000188000000000000000001888000000000030618428989Visapel S.A.                  000000000210000000000000173554000000000000000000000000000000000000000000000000000000000000000000000000000000000000000000PES00010000001 00000000000000020171101
201710020010000100000000000000000187000000000000000001878000000000030709789313Librer?a del Pilar SA         000000000200000000000000165289000000000000000000000000000000000000000000000000000000000000000000000000000000000000000000PES00010000001 00000000000000020171101
201710020060000100000000000000000040000000000000000000408000000000020269853736HECTOR A ITHURRART            000000000060500000000000050000000000000000000000000000000000000000000000000000000000000000000000000000000000000000000000PES00010000001 00000000000000020171101
201710020010000100000000000000000186000000000000000001868000000000030603993191MU?OZ Y CIA SRL               000000005929000000000004900000000000000000000000000000000000000000000000000000000000000000000000000000000000000000000000PES00010000001 00000000000000020171101
201710020010000100000000000000000185000000000000000001858000000000020294626213METALLO DIEGO HERNAN          000000000380000000000000345289000000000000000000000000000000000000000000000000000000000000000000000000000000000000000000PES00010000002 00000000000000020171101
201710020010000100000000000000000184000000000000000001848000000000030714450804CAUDALES NORTE S.A.           000000001278999000000001183545000000000000000000000000000000000000000000000000000000000000000000000000000000000000000000PES00010000002 00000000000000020171101
201710020010000100000000000000000183000000000000000001838000000000033714939969SEFINAR S.A.                  000000001278999000000001183545000000000000000000000000000000000000000000000000000000000000000000000000000000000000000000PES00010000002 00000000000000020171101
201710020010000100000000000000000182000000000000000001828000000000030714839329BIOPET SRL                    000000000849178000000000733040000000000000000000000000000000000000000000000000000000000000000000000000000000000000000000PES00010000002 00000000000000020171101
201710020060000100000000000000000039000000000000000000398000000000030605659981ASOCIACION MUTUAL DE CONDUCTOR000000001000000000000000826446000000000000000000000000000000000000000000000000000000000000000000000000000000000000000000PES00010000001 00000000000000020171101
201710020010000100000000000000000181000000000000000001818000000000030644406799Industrias Cer?micas Lourdes S000000000400001000000000330579000000000000000000000000000000000000000000000000000000000000000000000000000000000000000000PES00010000001 00000000000000020171101
201710020060000100000000000000000038000000000000000000388000000000030550857061COLEGIO DE FARMACEUTICOS DE LA000000000313632000000000259200000000000000000000000000000000000000000000000000000000000000000000000000000000000000000000PES00010000001 00000000000000020171101
201710020010000100000000000000000180000000000000000001808000000000030677349065IBICO SRL                     000000000250001000000000206612000000000000000000000000000000000000000000000000000000000000000000000000000000000000000000PES00010000001 00000000000000020171101
201710020010000100000000000000000179000000000000000001798000000000030709176354Laboratorios BioEsencia S.A.  000000000430001000000000386612000000000000000000000000000000000000000000000000000000000000000000000000000000000000000000PES00010000002 00000000000000020171101
201710020010000100000000000000000178000000000000000001788000000000030712516581CITTEP SRL                    000000000233000000000000192562000000000000000000000000000000000000000000000000000000000000000000000000000000000000000000PES00010000001 00000000000000020171101
201710020010000100000000000000000177000000000000000001778000000000030650327981OrtoTek S.R.L.                000000000200000000000000165289000000000000000000000000000000000000000000000000000000000000000000000000000000000000000000PES00010000001 00000000000000020171101
201710020060000100000000000000000037000000000000000000378000000000030598665563AMEPORT-MUTUAL DEL PERSONAL DE000000001000000000000000826446000000000000000000000000000000000000000000000000000000000000000000000000000000000000000000PES00010000001 00000000000000020171101
201710020010000100000000000000000176000000000000000001768000000000030711433526PLASTICOS DEL PLATA SRL       000000000469999000000000419669000000000000000000000000000000000000000000000000000000000000000000000000000000000000000000PES00010000002 00000000000000020171101
201710020010000100000000000000000175000000000000000001758000000000033708925549System Argentina S.A.         000000000280000000000000231405000000000000000000000000000000000000000000000000000000000000000000000000000000000000000000PES00010000001 00000000000000020171101
