201712310010000700000000000000000076000000000000000000768000000000030500059709Escudo Seguros SA             000000018641500000000018641500000000000000000000000000000000000000000000000000000000000000000000000000000000000000000000PES00010000001 00000000000000020180130
201712310010000700000000000000000075000000000000000000758000000000030714992356Alquimium SA                  000000009426250000000009426250000000000000000000000000000000000000000000000000000000000000000000000000000000000000000000PES00010000001 00000000000000020180130
201712290010000700000000000000000074000000000000000000748000000000030500059709Escudo Seguros SA             000000016625000000000016625000000000000000000000000000000000000000000000000000000000000000000000000000000000000000000000PES00010000001 00000000000000020180128
201712290010000700000000000000000073000000000000000000738000000000030714992356Alquimium SA                  000000008500000000000008500000000000000000000000000000000000000000000000000000000000000000000000000000000000000000000000PES00010000001 00000000000000020180128
201712290010000700000000000000000072000000000000000000728000000000030714727490Financiera de Microcreditos SA000000013905000000000013905000000000000000000000000000000000000000000000000000000000000000000000000000000000000000000000PES00010000001 00000000000000020180128
201712290010000700000000000000000071000000000000000000718000000000030714992356Alquimium SA                  000000014223750000000014223750000000000000000000000000000000000000000000000000000000000000000000000000000000000000000000PES00010000001 00000000000000020180128
201712290010000700000000000000000070000000000000000000708000000000030500059709Escudo Seguros SA             000000015383500000000015383500000000000000000000000000000000000000000000000000000000000000000000000000000000000000000000PES00010000001 00000000000000020180128
201712290030000700000000000000000043000000000000000000438000000000030500059709Escudo Seguros SA             000000013883500000000013883500000000000000000000000000000000000000000000000000000000000000000000000000000000000000000000PES00010000001 00000000000000020180128
201712290010000700000000000000000069000000000000000000698000000000030500059709Escudo Seguros SA             000000013883500000000013883500000000000000000000000000000000000000000000000000000000000000000000000000000000000000000000PES00010000001 00000000000000020180128
201712280010000700000000000000000068000000000000000000688000000000030709863491MEGALY TECH S.A.              000000007500000000000007500000000000000000000000000000000000000000000000000000000000000000000000000000000000000000000000PES00010000001 00000000000000020180127
201712280010000700000000000000000067000000000000000000678000000000030709863491MEGALY TECH S.A.              000000007500000000000007500000000000000000000000000000000000000000000000000000000000000000000000000000000000000000000000PES00010000001 00000000000000020180127
201712280010000700000000000000000066000000000000000000668000000000030709863491MEGALY TECH S.A.              000000007500000000000007500000000000000000000000000000000000000000000000000000000000000000000000000000000000000000000000PES00010000001 00000000000000020180127
201712280010000700000000000000000065000000000000000000658000000000030709863491MEGALY TECH S.A.              000000007500000000000007500000000000000000000000000000000000000000000000000000000000000000000000000000000000000000000000PES00010000001 00000000000000020180127
201712140010000700000000000000000064000000000000000000648000000000030500059709Escudo Seguros SA             000000009350000000000009350000000000000000000000000000000000000000000000000000000000000000000000000000000000000000000000PES00010000001 00000000000000020180113
201712140010000700000000000000000063000000000000000000638000000000030709872628Service New Way SRL           000000005850000000000005850000000000000000000000000000000000000000000000000000000000000000000000000000000000000000000000PES00010000001 00000000000000020180113
201712140010000700000000000000000062000000000000000000628000000000030714727490Financiera de Microcreditos SA000000009350000000000009350000000000000000000000000000000000000000000000000000000000000000000000000000000000000000000000PES00010000001 00000000000000020180113
201712140010000700000000000000000061000000000000000000618000000000030714992356Alquimium SA                  000000005850000000000005850000000000000000000000000000000000000000000000000000000000000000000000000000000000000000000000PES00010000001 00000000000000020180113
201712140030000700000000000000000042000000000000000000428000000000020228242382Diego Tisman                  000000000180000000000000180000000000000000000000000000000000000000000000000000000000000000000000000000000000000000000000PES00010000001 00000000000000020180113
201712140010000700000000000000000060000000000000000000608000000000030710509529VODATEC, S.A                  000000050000000000000050000000000000000000000000000000000000000000000000000000000000000000000000000000000000000000000000PES00010000001 00000000000000020180113
201712130010000700000000000000000059000000000000000000598000000000030714527696GYA WEST COMERCIAL            000000004150000000000004150000000000000000000000000000000000000000000000000000000000000000000000000000000000000000000000PES00010000001 00000000000000020180112
201712130010000700000000000000000058000000000000000000588000000000033714939969SEFINAR S.A.                  000000012100000000000012100000000000000000000000000000000000000000000000000000000000000000000000000000000000000000000000PES00010000001 00000000000000020180112
201712120010000700000000000000000057000000000000000000578000000000030714527696GYA WEST COMERCIAL            000000005850000000000005850000000000000000000000000000000000000000000000000000000000000000000000000000000000000000000000PES00010000001 00000000000000020180111
201712120060000700000000000000000020000000000000000000208000000000030710871716Asociacion Mutual Walung      000000000180000000000000180000000000000000000000000000000000000000000000000000000000000000000000000000000000000000000000PES00010000001 00000000000000020180111
201712120010000700000000000000000056000000000000000000568000000000030715004492TEAM MALDONADO HNOS S.A.      000000000180000000000000180000000000000000000000000000000000000000000000000000000000000000000000000000000000000000000000PES00010000001 00000000000000020180111
201712120010000700000000000000000055000000000000000000558000000000027252376459ESPACIO DEPORTIVO             000000000180000000000000180000000000000000000000000000000000000000000000000000000000000000000000000000000000000000000000PES00010000001 00000000000000020180111
201712120010000700000000000000000054000000000000000000548000000000020213635396GRAZIOSI ARIEL MART?N         000000000180000000000000180000000000000000000000000000000000000000000000000000000000000000000000000000000000000000000000PES00010000001 00000000000000020180111
201712120010000700000000000000000053000000000000000000538000000000020250890711HOLZE JULIO SEBASTIAN         000000000180000000000000180000000000000000000000000000000000000000000000000000000000000000000000000000000000000000000000PES00010000001 00000000000000020180111
201712120010000700000000000000000052000000000000000000528000000000020294626213METALLO DIEGO HERNAN          000000000180000000000000180000000000000000000000000000000000000000000000000000000000000000000000000000000000000000000000PES00010000001 00000000000000020180111
201712120010000700000000000000000051000000000000000000518000000000023249774979PARODI DAMIAN                 000000000228600000000000228600000000000000000000000000000000000000000000000000000000000000000000000000000000000000000000PES00010000001 00000000000000020180111
201712120010000700000000000000000050000000000000000000508000000000030714450804CAUDALES NORTE S.A.           000000000729000000000000729000000000000000000000000000000000000000000000000000000000000000000000000000000000000000000000PES00010000001 00000000000000020180111
201712120010000700000000000000000049000000000000000000498000000000033714939969SEFINAR S.A.                  000000000729000000000000729000000000000000000000000000000000000000000000000000000000000000000000000000000000000000000000PES00010000001 00000000000000020180111
201712120010000700000000000000000048000000000000000000488000000000030714839329BIOPET SRL                    000000000180000000000000180000000000000000000000000000000000000000000000000000000000000000000000000000000000000000000000PES00010000001 00000000000000020180111
201712120010000700000000000000000047000000000000000000478000000000030709176354Laboratorios BioEsencia S.A.  000000000180000000000000180000000000000000000000000000000000000000000000000000000000000000000000000000000000000000000000PES00010000001 00000000000000020180111
201712120060000700000000000000000019000000000000000000198000000000030598665563AMEPORT-MUTUAL DEL PERSONAL DE000000000540000000000000540000000000000000000000000000000000000000000000000000000000000000000000000000000000000000000000PES00010000001 00000000000000020180111
201712120010000700000000000000000046000000000000000000468000000000030711433526PLASTICOS DEL PLATA SRL       000000000180000000000000180000000000000000000000000000000000000000000000000000000000000000000000000000000000000000000000PES00010000001 00000000000000020180111
201712110030000700000000000000000041000000000000000000418000000000030500059709Escudo Seguros SA             000000018700000000000018700000000000000000000000000000000000000000000000000000000000000000000000000000000000000000000000PES00010000001 00000000000000020180110
201712110030000700000000000000000040000000000000000000408000000000030709872628Service New Way SRL           000000011700000000000011700000000000000000000000000000000000000000000000000000000000000000000000000000000000000000000000PES00010000001 00000000000000020180110
201712110030000700000000000000000039000000000000000000398000000000030714727490Financiera de Microcreditos SA000000018700000000000018700000000000000000000000000000000000000000000000000000000000000000000000000000000000000000000000PES00010000001 00000000000000020180110
201712110030000700000000000000000038000000000000000000388000000000030714992356Alquimium SA                  000000011700000000000011700000000000000000000000000000000000000000000000000000000000000000000000000000000000000000000000PES00010000001 00000000000000020180110
201712110030000700000000000000000037000000000000000000378000000000033714939969SEFINAR S.A.                  000000024200000000000024200000000000000000000000000000000000000000000000000000000000000000000000000000000000000000000000PES00010000001 00000000000000020180110
201712110030000700000000000000000036000000000000000000368000000000020228242382Diego Tisman                  000000010000000000000010000000000000000000000000000000000000000000000000000000000000000000000000000000000000000000000000PES00010000001 00000000000000020180110
201712110080000700000000000000000011000000000000000000118000000000030710871716Asociacion Mutual Walung      000000000360000000000000360000000000000000000000000000000000000000000000000000000000000000000000000000000000000000000000PES00010000001 00000000000000020180110
201712110030000700000000000000000035000000000000000000358000000000030715004492TEAM MALDONADO HNOS S.A.      000000000360000000000000360000000000000000000000000000000000000000000000000000000000000000000000000000000000000000000000PES00010000001 00000000000000020180110
201712110030000700000000000000000034000000000000000000348000000000027252376459ESPACIO DEPORTIVO             000000000360000000000000360000000000000000000000000000000000000000000000000000000000000000000000000000000000000000000000PES00010000001 00000000000000020180110
201712110030000700000000000000000033000000000000000000338000000000020213635396GRAZIOSI ARIEL MART?N         000000000360000000000000360000000000000000000000000000000000000000000000000000000000000000000000000000000000000000000000PES00010000001 00000000000000020180110
201712110030000700000000000000000032000000000000000000328000000000020250890711HOLZE JULIO SEBASTIAN         000000000360000000000000360000000000000000000000000000000000000000000000000000000000000000000000000000000000000000000000PES00010000001 00000000000000020180110
201712110030000700000000000000000031000000000000000000318000000000020294626213METALLO DIEGO HERNAN          000000000360000000000000360000000000000000000000000000000000000000000000000000000000000000000000000000000000000000000000PES00010000001 00000000000000020180110
201712110030000700000000000000000030000000000000000000308000000000023249774979PARODI DAMIAN                 000000000457200000000000457200000000000000000000000000000000000000000000000000000000000000000000000000000000000000000000PES00010000001 00000000000000020180110
201712110030000700000000000000000029000000000000000000298000000000030714450804CAUDALES NORTE S.A.           000000001458000000000001458000000000000000000000000000000000000000000000000000000000000000000000000000000000000000000000PES00010000001 00000000000000020180110
201712110030000700000000000000000028000000000000000000288000000000033714939969SEFINAR S.A.                  000000001458000000000001458000000000000000000000000000000000000000000000000000000000000000000000000000000000000000000000PES00010000001 00000000000000020180110
201712110030000700000000000000000027000000000000000000278000000000030714839329BIOPET SRL                    000000000360000000000000360000000000000000000000000000000000000000000000000000000000000000000000000000000000000000000000PES00010000001 00000000000000020180110
201712110030000700000000000000000026000000000000000000268000000000030709176354Laboratorios BioEsencia S.A.  000000000360000000000000360000000000000000000000000000000000000000000000000000000000000000000000000000000000000000000000PES00010000001 00000000000000020180110
201712110080000700000000000000000010000000000000000000108000000000030598665563AMEPORT-MUTUAL DEL PERSONAL DE000000000540000000000000540000000000000000000000000000000000000000000000000000000000000000000000000000000000000000000000PES00010000001 00000000000000020180110
201712110030000700000000000000000025000000000000000000258000000000030711433526PLASTICOS DEL PLATA SRL       000000000360000000000000360000000000000000000000000000000000000000000000000000000000000000000000000000000000000000000000PES00010000001 00000000000000020180110
201712070060000700000000000000000018000000000000000000188000000000030605659981Asociacion Mutual de Conductor000000019990250000000019990250000000000000000000000000000000000000000000000000000000000000000000000000000000000000000000PES00010000001 00000000000000020180106
201712070060000700000000000000000017000000000000000000178000000000030710871716Asociacion Mutual Walung      000000025000000000000025000000000000000000000000000000000000000000000000000000000000000000000000000000000000000000000000PES00010000001 00000000000000020180106
201712070060000700000000000000000016000000000000000000168000000000030605659981Asociacion Mutual de Conductor000000019971750000000019971750000000000000000000000000000000000000000000000000000000000000000000000000000000000000000000PES00010000001 00000000000000020180106
201712070060000700000000000000000015000000000000000000158000000000030710871716Asociacion Mutual Walung      000000035000000000000035000000000000000000000000000000000000000000000000000000000000000000000000000000000000000000000000PES00010000001 00000000000000020180106
201712070060000700000000000000000014000000000000000000148000000000030605659981Asociacion Mutual de Conductor000000020006500000000020006500000000000000000000000000000000000000000000000000000000000000000000000000000000000000000000PES00010000001 00000000000000020180106
201712060010000700000000000000000045000000000000000000458000000000030709666238CONSENIT S.A.                 000000006500000000000006500000000000000000000000000000000000000000000000000000000000000000000000000000000000000000000000PES00010000001 00000000000000020180105
201712060010000700000000000000000044000000000000000000448000000000020228242382Diego Tisman                  000000000180000000000000180000000000000000000000000000000000000000000000000000000000000000000000000000000000000000000000PES00010000001 00000000000000020180105
201712040010000700000000000000000043000000000000000000438000000000020228242382Diego Tisman                  000000005000000000000005000000000000000000000000000000000000000000000000000000000000000000000000000000000000000000000000PES00010000001 00000000000000020180103
201712040010000700000000000000000042000000000000000000428000000000030500059709Escudo Seguros SA             000000018700000000000018700000000000000000000000000000000000000000000000000000000000000000000000000000000000000000000000PES00010000001 00000000000000020180103
201712040010000700000000000000000041000000000000000000418000000000030709872628Service New Way SRL           000000011700000000000011700000000000000000000000000000000000000000000000000000000000000000000000000000000000000000000000PES00010000001 00000000000000020180103
201712040010000700000000000000000040000000000000000000408000000000030714727490Financiera de Microcreditos SA000000018700000000000018700000000000000000000000000000000000000000000000000000000000000000000000000000000000000000000000PES00010000001 00000000000000020180103
201712040010000700000000000000000039000000000000000000398000000000030714992356Alquimium SA                  000000011700000000000011700000000000000000000000000000000000000000000000000000000000000000000000000000000000000000000000PES00010000001 00000000000000020180103
201712040010000700000000000000000038000000000000000000388000000000033714939969SEFINAR S.A.                  000000024200000000000024200000000000000000000000000000000000000000000000000000000000000000000000000000000000000000000000PES00010000001 00000000000000020180103
201712020010000700000000000000000037000000000000000000378000000000020228242382Diego Tisman                  000000010000000000000010000000000000000000000000000000000000000000000000000000000000000000000000000000000000000000000000PES00010000001 00000000000000020180101
201712020060000700000000000000000013000000000000000000138000000000030710871716Asociacion Mutual Walung      000000000360000000000000360000000000000000000000000000000000000000000000000000000000000000000000000000000000000000000000PES00010000001 00000000000000020180101
201712020010000700000000000000000036000000000000000000368000000000030715004492TEAM MALDONADO HNOS S.A.      000000000360000000000000360000000000000000000000000000000000000000000000000000000000000000000000000000000000000000000000PES00010000001 00000000000000020180101
201712020010000700000000000000000035000000000000000000358000000000027252376459ESPACIO DEPORTIVO             000000000360000000000000360000000000000000000000000000000000000000000000000000000000000000000000000000000000000000000000PES00010000001 00000000000000020180101
201712020010000700000000000000000034000000000000000000348000000000020213635396GRAZIOSI ARIEL MART?N         000000000360000000000000360000000000000000000000000000000000000000000000000000000000000000000000000000000000000000000000PES00010000001 00000000000000020180101
201712020010000700000000000000000033000000000000000000338000000000020250890711HOLZE JULIO SEBASTIAN         000000000360000000000000360000000000000000000000000000000000000000000000000000000000000000000000000000000000000000000000PES00010000001 00000000000000020180101
201712020010000700000000000000000032000000000000000000328000000000020294626213METALLO DIEGO HERNAN          000000000360000000000000360000000000000000000000000000000000000000000000000000000000000000000000000000000000000000000000PES00010000001 00000000000000020180101
201712020010000700000000000000000031000000000000000000318000000000023249774979PARODI DAMIAN                 000000000457200000000000457200000000000000000000000000000000000000000000000000000000000000000000000000000000000000000000PES00010000001 00000000000000020180101
201712020010000700000000000000000030000000000000000000308000000000030714450804CAUDALES NORTE S.A.           000000001458000000000001458000000000000000000000000000000000000000000000000000000000000000000000000000000000000000000000PES00010000001 00000000000000020180101
201712020010000700000000000000000029000000000000000000298000000000033714939969SEFINAR S.A.                  000000001458000000000001458000000000000000000000000000000000000000000000000000000000000000000000000000000000000000000000PES00010000001 00000000000000020180101
201712020010000700000000000000000028000000000000000000288000000000030714839329BIOPET SRL                    000000000360000000000000360000000000000000000000000000000000000000000000000000000000000000000000000000000000000000000000PES00010000001 00000000000000020180101
201712020010000700000000000000000027000000000000000000278000000000030709176354Laboratorios BioEsencia S.A.  000000000360000000000000360000000000000000000000000000000000000000000000000000000000000000000000000000000000000000000000PES00010000001 00000000000000020180101
201712020060000700000000000000000012000000000000000000128000000000030598665563AMEPORT-MUTUAL DEL PERSONAL DE000000000540000000000000540000000000000000000000000000000000000000000000000000000000000000000000000000000000000000000000PES00010000001 00000000000000020180101
201712020010000700000000000000000026000000000000000000268000000000030711433526PLASTICOS DEL PLATA SRL       000000000360000000000000360000000000000000000000000000000000000000000000000000000000000000000000000000000000000000000000PES00010000001 00000000000000020180101
