201802010010000700000000000000000100000000000000000001008000000000030711433526PLASTICOS DEL PLATA SRL       000000000201500000000000000000000000000000000000000000201500000000000000000000000000000000000000000000000000000000000000PES00010000001E00000000000000020180303
201802010060000700000000000000000029000000000000000000298000000000030598665563AMEPORT-MUTUAL DEL PERSONAL DE000000000302250000000000000000000000000000000000000000302250000000000000000000000000000000000000000000000000000000000000PES00010000001E00000000000000020180303
201802010010000700000000000000000101000000000000000001018000000000030709176354Laboratorios BioEsencia S.A.  000000000201500000000000000000000000000000000000000000201500000000000000000000000000000000000000000000000000000000000000PES00010000001E00000000000000020180303
201802010010000700000000000000000102000000000000000001028000000000030714839329BIOPET SRL                    000000000201500000000000000000000000000000000000000000201500000000000000000000000000000000000000000000000000000000000000PES00010000001E00000000000000020180303
201802010010000700000000000000000103000000000000000001038000000000023249774979PARODI DAMIAN                 000000000221650000000000000000000000000000000000000000221650000000000000000000000000000000000000000000000000000000000000PES00010000001E00000000000000020180303
201802010010000700000000000000000104000000000000000001048000000000020294626213METALLO DIEGO HERNAN          000000000201500000000000000000000000000000000000000000201500000000000000000000000000000000000000000000000000000000000000PES00010000001E00000000000000020180303
201802010010000700000000000000000105000000000000000001058000000000020250890711HOLZE JULIO SEBASTIAN         000000000201500000000000000000000000000000000000000000201500000000000000000000000000000000000000000000000000000000000000PES00010000001E00000000000000020180303
201802010010000700000000000000000106000000000000000001068000000000027252376459ESPACIO DEPORTIVO             000000000201500000000000000000000000000000000000000000201500000000000000000000000000000000000000000000000000000000000000PES00010000001E00000000000000020180303
201802010010000700000000000000000107000000000000000001078000000000030715004492TEAM MALDONADO HNOS S.A.      000000000201500000000000000000000000000000000000000000201500000000000000000000000000000000000000000000000000000000000000PES00010000001E00000000000000020180303
201802010010000700000000000000000108000000000000000001088000000000030714450804CAUDALES NORTE S.A.           000000000906750000000000000000000000000000000000000000906750000000000000000000000000000000000000000000000000000000000000PES00010000001E00000000000000020180303
201802010010000700000000000000000109000000000000000001098000000000033714939969SEFINAR S.A.                  000000000906750000000000000000000000000000000000000000906750000000000000000000000000000000000000000000000000000000000000PES00010000001E00000000000000020180303
201802010060000700000000000000000030000000000000000000308000000000030605659981Asociacion Mutual de Conductor000000005850000000000000000000000000000000000000000005850000000000000000000000000000000000000000000000000000000000000000PES00010000001E00000000000000020180303
201802010060000700000000000000000031000000000000000000318000000000030710871716Asociacion Mutual Walung      000000009350000000000000000000000000000000000000000009350000000000000000000000000000000000000000000000000000000000000000PES00010000001E00000000000000020180303
201802010060000700000000000000000032000000000000000000328000000000030605659981Asociacion Mutual de Conductor000000014641250000000000000000000000000000000000000014641250000000000000000000000000000000000000000000000000000000000000PES00010000001E00000000000000020180303
201802010060000700000000000000000033000000000000000000338000000000030710871716Asociacion Mutual Walung      000000017403000000000000000000000000000000000000000017403000000000000000000000000000000000000000000000000000000000000000PES00010000001E00000000000000020180303
201802010060000700000000000000000034000000000000000000348000000000030605659981Asociacion Mutual de Conductor000000014508750000000000000000000000000000000000000014508750000000000000000000000000000000000000000000000000000000000000PES00010000001E00000000000000020180303
201802070010000700000000000000000110000000000000000001108000000000020228242382Diego Tisman                  000000005000000000000000000000000000000000000000000005000000000000000000000000000000000000000000000000000000000000000000PES00010000001E00000000000000020180309
201802090010000700000000000000000111000000000000000001118000000000030500059709Escudo Seguros SA             000000009350000000000000000000000000000000000000000009350000000000000000000000000000000000000000000000000000000000000000PES00010000001E00000000000000020180311
201802160060000700000000000000000035000000000000000000358000000000030710871716Asociacion Mutual Walung      000000020000000000000000000000000000000000000000000020000000000000000000000000000000000000000000000000000000000000000000PES00010000001E00000000000000020180318
201802210010000700000000000000000112000000000000000001128000000000030715421077Time Solution SRL             000000015300000000000000000000000000000000000000000015300000000000000000000000000000000000000000000000000000000000000000PES00010000001E00000000000000020180323
201802210030000700000000000000000044000000000000000000448000000000030715421077Time Solution SRL             000000015300000000000000000000000000000000000000000015300000000000000000000000000000000000000000000000000000000000000000PES00010000001E00000000000000020180323
201802210060000700000000000000000036000000000000000000368000000000030710871716Asociacion Mutual Walung      000000015300000000000000000000000000000000000000000015300000000000000000000000000000000000000000000000000000000000000000PES00010000001E00000000000000020180323
201802280010000700000000000000000113000000000000000001138000000000030500059709Escudo Seguros SA             000000015199500000000000000000000000000000000000000015199500000000000000000000000000000000000000000000000000000000000000PES00010000001E00000000000000020180330
201802280010000700000000000000000114000000000000000001148000000000030714727490Financiera de Microcreditos SA000000009350000000000000000000000000000000000000000009350000000000000000000000000000000000000000000000000000000000000000PES00010000001E00000000000000020180330
201802280010000700000000000000000115000000000000000001158000000000033714939969SEFINAR S.A.                  000000012100000000000000000000000000000000000000000012100000000000000000000000000000000000000000000000000000000000000000PES00010000001E00000000000000020180330
201802280010000700000000000000000116000000000000000001168000000000030709872628Service New Way SRL           000000005850000000000000000000000000000000000000000005850000000000000000000000000000000000000000000000000000000000000000PES00010000001E00000000000000020180330
201802280010000700000000000000000117000000000000000001178000000000030500059709Escudo Seguros SA             000000015730000000000000000000000000000000000000000015730000000000000000000000000000000000000000000000000000000000000000PES00010000001E00000000000000020180330
201802280010000700000000000000000118000000000000000001188000000000030714727490Financiera de Microcreditos SA000000012812500000000000000000000000000000000000000012812500000000000000000000000000000000000000000000000000000000000000PES00010000001E00000000000000020180330
201802280010000700000000000000000119000000000000000001198000000000030714992356Alquimium SA                  000000009350000000000000000000000000000000000000000009350000000000000000000000000000000000000000000000000000000000000000PES00010000001E00000000000000020180330
201802280010000700000000000000000120000000000000000001208000000000030500059709Escudo Seguros SA             000000019725000000000000000000000000000000000000000019725000000000000000000000000000000000000000000000000000000000000000PES00010000001E00000000000000020180330
201802280010000700000000000000000121000000000000000001218000000000030714992356Alquimium SA                  000000008500000000000000000000000000000000000000000008500000000000000000000000000000000000000000000000000000000000000000PES00010000001E00000000000000020180330
