201802010060000300000000000000465005                8000000000033709020469USUAHIAVISION S.A.            000000000205000000000000000000000000000000000000000000000000000000000000000000000000000000000000000000000000000000000000PES00010000000N00000000000000000000000000000000000000000                              000000000000000
201802010010000200000000000000000096                8000000000030710628447D.O.N. NICOLAS SRL            000000001800000000000000000000000000001800000000000000000000000000000000000000000000000000000000000000000000000000000000PES00010000001E00000000000000000000000000000000000000000                              000000000000000
201802010010000500000000000000000809                8000000000030711558620SKILLMEDIA SRL                000000000335943000000000000000000000000335943000000000000000000000000000000000000000000000000000000000000000000000000000PES00010000001E00000000000000000000000000000000000000000                              000000000000000
