201801010060000300000000000000452936                8000000000033709020469USUAHIAVISION S.A.            000000000176000000000000000000000000000000000000000000000000000000000000000000000000000000000000000000000000000000000000PES00010000000N00000000000000000000000000000000000000000                              000000000000000
201801020190000500000000000000000750                8000000000030711558620SKILLMEDIA SRL                000000002512721000000002512721000000000000000000000000000000000000000000000000000000000000000000000000000000000000000000PES00010000001 00000000000000000000000000000000000000000                              000000000000000
201801250010000200000000000000000094                8000000000030710628447D.O.N. NICOLAS SRL            000000001800000000000001800000000000000000000000000000000000000000000000000000000000000000000000000000000000000000000000PES00010000001 00000000000000000000000000000000000000000                              000000000000000
201801220010000200000000000000000039                8000000000030714697168PILAR SRL                     000000001800000000000001800000000000000000000000000000000000000000000000000000000000000000000000000000000000000000000000PES00010000001 00000000000000000000000000000000000000000                              000000000000000
