201801020010000700000000000000000077000000000000000000778000000000030711433526PLASTICOS DEL PLATA SRL       000000000190000000000000000000000000000000000000000000190000000000000000000000000000000000000000000000000000000000000000PES00010000001E00000000000000020180201
201801020060000700000000000000000021000000000000000000218000000000030598665563AMEPORT-MUTUAL DEL PERSONAL DE000000000285000000000000000000000000000000000000000000285000000000000000000000000000000000000000000000000000000000000000PES00010000001E00000000000000020180201
201801020010000700000000000000000078000000000000000000788000000000030709176354Laboratorios BioEsencia S.A.  000000000190000000000000000000000000000000000000000000190000000000000000000000000000000000000000000000000000000000000000PES00010000001E00000000000000020180201
201801020010000700000000000000000079000000000000000000798000000000030714839329BIOPET SRL                    000000000190000000000000000000000000000000000000000000190000000000000000000000000000000000000000000000000000000000000000PES00010000001E00000000000000020180201
201801020010000700000000000000000080000000000000000000808000000000033714939969SEFINAR S.A.                  000000000769500000000000000000000000000000000000000000769500000000000000000000000000000000000000000000000000000000000000PES00010000001E00000000000000020180201
201801020010000700000000000000000081000000000000000000818000000000030714450804CAUDALES NORTE S.A.           000000000769500000000000000000000000000000000000000000769500000000000000000000000000000000000000000000000000000000000000PES00010000001E00000000000000020180201
201801020010000700000000000000000082000000000000000000828000000000023249774979PARODI DAMIAN                 000000000249000000000000000000000000000000000000000000249000000000000000000000000000000000000000000000000000000000000000PES00010000001E00000000000000020180201
201801020010000700000000000000000083000000000000000000838000000000020294626213METALLO DIEGO HERNAN          000000000190000000000000000000000000000000000000000000190000000000000000000000000000000000000000000000000000000000000000PES00010000001E00000000000000020180201
201801020010000700000000000000000084000000000000000000848000000000020250890711HOLZE JULIO SEBASTIAN         000000000190000000000000000000000000000000000000000000190000000000000000000000000000000000000000000000000000000000000000PES00010000001E00000000000000020180201
201801020010000700000000000000000085000000000000000000858000000000027252376459ESPACIO DEPORTIVO             000000000190000000000000000000000000000000000000000000190000000000000000000000000000000000000000000000000000000000000000PES00010000001E00000000000000020180201
201801020010000700000000000000000086000000000000000000868000000000030715004492TEAM MALDONADO HNOS S.A.      000000000190000000000000000000000000000000000000000000190000000000000000000000000000000000000000000000000000000000000000PES00010000001E00000000000000020180201
201801020060000700000000000000000022000000000000000000228000000000030710871716Asociacion Mutual Walung      000000000190000000000000000000000000000000000000000000190000000000000000000000000000000000000000000000000000000000000000PES00010000001E00000000000000020180201
201801040060000700000000000000000023000000000000000000238000000000030605659981Asociacion Mutual de Conductor000000005850000000000000000000000000000000000000000005850000000000000000000000000000000000000000000000000000000000000000PES00010000001E00000000000000020180203
201801040060000700000000000000000024000000000000000000248000000000030710871716Asociacion Mutual Walung      000000009350000000000000000000000000000000000000000009350000000000000000000000000000000000000000000000000000000000000000PES00010000001E00000000000000020180203
201801040060000700000000000000000025000000000000000000258000000000030605659981Asociacion Mutual de Conductor000000014639500000000000000000000000000000000000000014639500000000000000000000000000000000000000000000000000000000000000PES00010000001E00000000000000020180203
201801040060000700000000000000000026000000000000000000268000000000030710871716Asociacion Mutual Walung      000000017398750000000000000000000000000000000000000017398750000000000000000000000000000000000000000000000000000000000000PES00010000001E00000000000000020180203
201801040060000700000000000000000027000000000000000000278000000000030605659981Asociacion Mutual de Conductor000000014535000000000000000000000000000000000000000014535000000000000000000000000000000000000000000000000000000000000000PES00010000001E00000000000000020180203
201801040010000700000000000000000087000000000000000000878000000000030500059709Escudo Seguros SA             000000009350000000000000000000000000000000000000000009350000000000000000000000000000000000000000000000000000000000000000PES00010000001E00000000000000020180203
201801040010000700000000000000000088000000000000000000888000000000030714992356Alquimium SA                  000000009350000000000000000000000000000000000000000009350000000000000000000000000000000000000000000000000000000000000000PES00010000001E00000000000000020180203
201801040010000700000000000000000089000000000000000000898000000000030709872628Service New Way SRL           000000005850000000000000000000000000000000000000000005850000000000000000000000000000000000000000000000000000000000000000PES00010000001E00000000000000020180203
201801040010000700000000000000000090000000000000000000908000000000033714939969SEFINAR S.A.                  000000012100000000000000000000000000000000000000000012100000000000000000000000000000000000000000000000000000000000000000PES00010000001E00000000000000020180203
201801040010000700000000000000000091000000000000000000918000000000030714727490Financiera de Microcreditos SA000000009350000000000000000000000000000000000000000009350000000000000000000000000000000000000000000000000000000000000000PES00010000001E00000000000000020180203
201801080010000700000000000000000092000000000000000000928000000000020228242382Diego Tisman                  000000005000000000000000000000000000000000000000000005000000000000000000000000000000000000000000000000000000000000000000PES00010000001E00000000000000020180207
201801310060000700000000000000000028000000000000000000288000000000030710871716Asociacion Mutual Walung      000000025000000000000000000000000000000000000000000025000000000000000000000000000000000000000000000000000000000000000000PES00010000001E00000000000000020180302
201801310010000700000000000000000093000000000000000000938000000000030500059709Escudo Seguros SA             000000015238750000000000000000000000000000000000000015238750000000000000000000000000000000000000000000000000000000000000PES00010000001E00000000000000020180302
201801310010000700000000000000000094000000000000000000948000000000030714992356Alquimium SA                  000000013832000000000000000000000000000000000000000013832000000000000000000000000000000000000000000000000000000000000000PES00010000001E00000000000000020180302
201801310010000700000000000000000095000000000000000000958000000000030714727490Financiera de Microcreditos SA000000012812500000000000000000000000000000000000000012812500000000000000000000000000000000000000000000000000000000000000PES00010000001E00000000000000020180302
201801310010000700000000000000000096000000000000000000968000000000030714992356Alquimium SA                  000000008500000000000000000000000000000000000000000008500000000000000000000000000000000000000000000000000000000000000000PES00010000001E00000000000000020180302
201801310010000700000000000000000097000000000000000000978000000000030500059709Escudo Seguros SA             000000015702000000000000000000000000000000000000000015702000000000000000000000000000000000000000000000000000000000000000PES00010000001E00000000000000020180302
201801310010000700000000000000000098000000000000000000988000000000030714992356Alquimium SA                  000000009539000000000000000000000000000000000000000009539000000000000000000000000000000000000000000000000000000000000000PES00010000001E00000000000000020180302
201801310010000700000000000000000099000000000000000000998000000000030500059709Escudo Seguros SA             000000018914500000000000000000000000000000000000000018914500000000000000000000000000000000000000000000000000000000000000PES00010000001E00000000000000020180302
